{
  "contractName": "LANDRegistry",
  "abi": [
    {
      "constant": true,
      "inputs": [],
      "name": "proxyOwner",
      "outputs": [
        {
          "name": "",
          "type": "address"
        }
      ],
      "payable": false,
      "stateMutability": "view",
      "type": "function"
    },
    {
      "constant": true,
      "inputs": [],
      "name": "name",
      "outputs": [
        {
          "name": "",
          "type": "string"
        }
      ],
      "payable": false,
      "stateMutability": "view",
      "type": "function"
    },
    {
      "constant": true,
      "inputs": [],
      "name": "totalSupply",
      "outputs": [
        {
          "name": "",
          "type": "uint256"
        }
      ],
      "payable": false,
      "stateMutability": "view",
      "type": "function"
    },
    {
      "constant": true,
      "inputs": [
        {
          "name": "holder",
          "type": "address"
        }
      ],
      "name": "assetsOf",
      "outputs": [
        {
          "name": "",
          "type": "uint256[]"
        }
      ],
      "payable": false,
      "stateMutability": "view",
      "type": "function"
    },
    {
      "constant": true,
      "inputs": [
        {
          "name": "assetId",
          "type": "uint256"
        }
      ],
      "name": "safeHolderOf",
      "outputs": [
        {
          "name": "",
          "type": "address"
        }
      ],
      "payable": false,
      "stateMutability": "view",
      "type": "function"
    },
    {
      "constant": true,
      "inputs": [
        {
          "name": "b",
          "type": "bytes"
        }
      ],
      "name": "bytesToAddress",
      "outputs": [
        {
          "name": "",
          "type": "address"
        }
      ],
      "payable": false,
      "stateMutability": "pure",
      "type": "function"
    },
    {
      "constant": true,
      "inputs": [
        {
          "name": "operator",
          "type": "address"
        },
        {
          "name": "assetHolder",
          "type": "address"
        }
      ],
      "name": "isOperatorAuthorizedFor",
      "outputs": [
        {
          "name": "",
          "type": "bool"
        }
      ],
      "payable": false,
      "stateMutability": "view",
      "type": "function"
    },
    {
      "constant": true,
      "inputs": [],
      "name": "currentContract",
      "outputs": [
        {
          "name": "",
          "type": "address"
        }
      ],
      "payable": false,
      "stateMutability": "view",
      "type": "function"
    },
    {
      "constant": true,
      "inputs": [],
      "name": "description",
      "outputs": [
        {
          "name": "",
          "type": "string"
        }
      ],
      "payable": false,
      "stateMutability": "view",
      "type": "function"
    },
    {
      "constant": true,
      "inputs": [],
      "name": "owner",
      "outputs": [
        {
          "name": "",
          "type": "address"
        }
      ],
      "payable": false,
      "stateMutability": "view",
      "type": "function"
    },
    {
      "constant": true,
      "inputs": [],
      "name": "symbol",
      "outputs": [
        {
          "name": "",
          "type": "string"
        }
      ],
      "payable": false,
      "stateMutability": "view",
      "type": "function"
    },
    {
      "constant": false,
      "inputs": [
        {
          "name": "to",
          "type": "address"
        },
        {
          "name": "assetId",
          "type": "uint256"
        }
      ],
      "name": "transfer",
      "outputs": [],
      "payable": false,
      "stateMutability": "nonpayable",
      "type": "function"
    },
    {
      "constant": true,
      "inputs": [
        {
          "name": "assetId",
          "type": "uint256"
        }
      ],
      "name": "assetData",
      "outputs": [
        {
          "name": "",
          "type": "string"
        }
      ],
      "payable": false,
      "stateMutability": "view",
      "type": "function"
    },
    {
      "constant": false,
      "inputs": [
        {
          "name": "operator",
          "type": "address"
        },
        {
          "name": "authorized",
          "type": "bool"
        }
      ],
      "name": "authorizeOperator",
      "outputs": [],
      "payable": false,
      "stateMutability": "nonpayable",
      "type": "function"
    },
    {
      "constant": true,
      "inputs": [
        {
          "name": "assetId",
          "type": "uint256"
        }
      ],
      "name": "safeAssetData",
      "outputs": [
        {
          "name": "",
          "type": "string"
        }
      ],
      "payable": false,
      "stateMutability": "view",
      "type": "function"
    },
    {
      "constant": false,
      "inputs": [
        {
          "name": "to",
          "type": "address"
        },
        {
          "name": "assetId",
          "type": "uint256"
        },
        {
          "name": "userData",
          "type": "bytes"
        }
      ],
      "name": "transfer",
      "outputs": [],
      "payable": false,
      "stateMutability": "nonpayable",
      "type": "function"
    },
    {
      "constant": true,
      "inputs": [
        {
          "name": "holder",
          "type": "address"
        }
      ],
      "name": "assetCount",
      "outputs": [
        {
          "name": "",
          "type": "uint256"
        }
      ],
      "payable": false,
      "stateMutability": "view",
      "type": "function"
    },
    {
      "constant": true,
      "inputs": [
        {
          "name": "holder",
          "type": "address"
        },
        {
          "name": "index",
          "type": "uint256"
        }
      ],
      "name": "assetByIndex",
      "outputs": [
        {
          "name": "",
          "type": "uint256"
        }
      ],
      "payable": false,
      "stateMutability": "view",
      "type": "function"
    },
    {
      "constant": true,
      "inputs": [
        {
          "name": "assetId",
          "type": "uint256"
        }
      ],
      "name": "holderOf",
      "outputs": [
        {
          "name": "",
          "type": "address"
        }
      ],
      "payable": false,
      "stateMutability": "view",
      "type": "function"
    },
    {
      "constant": false,
      "inputs": [
        {
          "name": "to",
          "type": "address"
        },
        {
          "name": "assetId",
          "type": "uint256"
        },
        {
          "name": "userData",
          "type": "bytes"
        },
        {
          "name": "operatorData",
          "type": "bytes"
        }
      ],
      "name": "transfer",
      "outputs": [],
      "payable": false,
      "stateMutability": "nonpayable",
      "type": "function"
    },
    {
      "constant": false,
      "inputs": [
        {
          "name": "_newOwner",
          "type": "address"
        }
      ],
      "name": "transferOwnership",
      "outputs": [],
      "payable": false,
      "stateMutability": "nonpayable",
      "type": "function"
    },
    {
      "anonymous": false,
      "inputs": [
        {
          "indexed": true,
          "name": "from",
          "type": "address"
        },
        {
          "indexed": true,
          "name": "to",
          "type": "address"
        },
        {
          "indexed": true,
          "name": "assetId",
          "type": "uint256"
        },
        {
          "indexed": false,
          "name": "operator",
          "type": "address"
        },
        {
          "indexed": false,
          "name": "userData",
          "type": "bytes"
        },
        {
          "indexed": false,
          "name": "operatorData",
          "type": "bytes"
        }
      ],
      "name": "Transfer",
      "type": "event"
    },
    {
      "anonymous": false,
      "inputs": [
        {
          "indexed": true,
          "name": "assetId",
          "type": "uint256"
        },
        {
          "indexed": true,
          "name": "holder",
          "type": "address"
        },
        {
          "indexed": true,
          "name": "operator",
          "type": "address"
        },
        {
          "indexed": false,
          "name": "data",
          "type": "string"
        }
      ],
      "name": "Update",
      "type": "event"
    },
    {
      "anonymous": false,
      "inputs": [
        {
          "indexed": true,
          "name": "operator",
          "type": "address"
        },
        {
          "indexed": true,
          "name": "holder",
          "type": "address"
        },
        {
          "indexed": false,
          "name": "authorized",
          "type": "bool"
        }
      ],
      "name": "AuthorizeOperator",
      "type": "event"
    },
    {
      "anonymous": false,
      "inputs": [
        {
          "indexed": false,
          "name": "_prevOwner",
          "type": "address"
        },
        {
          "indexed": false,
          "name": "_newOwner",
          "type": "address"
        }
      ],
      "name": "OwnerUpdate",
      "type": "event"
    },
    {
      "constant": false,
      "inputs": [
        {
          "name": "data",
          "type": "bytes"
        }
      ],
      "name": "initialize",
      "outputs": [],
      "payable": false,
      "stateMutability": "nonpayable",
      "type": "function"
    },
    {
      "constant": false,
      "inputs": [
        {
          "name": "beneficiary",
          "type": "address"
        }
      ],
      "name": "authorizeDeploy",
      "outputs": [],
      "payable": false,
      "stateMutability": "nonpayable",
      "type": "function"
    },
    {
      "constant": false,
      "inputs": [
        {
          "name": "beneficiary",
          "type": "address"
        }
      ],
      "name": "forbidDeploy",
      "outputs": [],
      "payable": false,
      "stateMutability": "nonpayable",
      "type": "function"
    },
    {
      "constant": false,
      "inputs": [
        {
          "name": "x",
          "type": "int256"
        },
        {
          "name": "y",
          "type": "int256"
        },
        {
          "name": "beneficiary",
          "type": "address"
        }
      ],
      "name": "assignNewParcel",
      "outputs": [],
      "payable": false,
      "stateMutability": "nonpayable",
      "type": "function"
    },
    {
      "constant": false,
      "inputs": [
        {
          "name": "x",
          "type": "int256[]"
        },
        {
          "name": "y",
          "type": "int256[]"
        },
        {
          "name": "beneficiary",
          "type": "address"
        }
      ],
      "name": "assignMultipleParcels",
      "outputs": [],
      "payable": false,
      "stateMutability": "nonpayable",
      "type": "function"
    },
    {
      "constant": false,
      "inputs": [
        {
          "name": "assetId",
          "type": "uint256"
        }
      ],
      "name": "destroy",
      "outputs": [],
      "payable": false,
      "stateMutability": "nonpayable",
      "type": "function"
    },
    {
      "constant": false,
      "inputs": [],
      "name": "ping",
      "outputs": [],
      "payable": false,
      "stateMutability": "nonpayable",
      "type": "function"
    },
    {
      "constant": false,
      "inputs": [
        {
          "name": "user",
          "type": "address"
        }
      ],
      "name": "setLatestToNow",
      "outputs": [],
      "payable": false,
      "stateMutability": "nonpayable",
      "type": "function"
    },
    {
      "constant": false,
      "inputs": [
        {
          "name": "x",
          "type": "int256[]"
        },
        {
          "name": "y",
          "type": "int256[]"
        }
      ],
      "name": "clearLand",
      "outputs": [],
      "payable": false,
      "stateMutability": "nonpayable",
      "type": "function"
    },
    {
      "constant": true,
      "inputs": [
        {
          "name": "x",
          "type": "int256"
        },
        {
          "name": "y",
          "type": "int256"
        }
      ],
      "name": "encodeTokenId",
      "outputs": [
        {
          "name": "",
          "type": "uint256"
        }
      ],
      "payable": false,
      "stateMutability": "view",
      "type": "function"
    },
    {
      "constant": true,
      "inputs": [
        {
          "name": "value",
          "type": "uint256"
        }
      ],
      "name": "decodeTokenId",
      "outputs": [
        {
          "name": "",
          "type": "int256"
        },
        {
          "name": "",
          "type": "int256"
        }
      ],
      "payable": false,
      "stateMutability": "view",
      "type": "function"
    },
    {
      "constant": true,
      "inputs": [
        {
          "name": "x",
          "type": "int256"
        },
        {
          "name": "y",
          "type": "int256"
        }
      ],
      "name": "exists",
      "outputs": [
        {
          "name": "",
          "type": "bool"
        }
      ],
      "payable": false,
      "stateMutability": "view",
      "type": "function"
    },
    {
      "constant": true,
      "inputs": [
        {
          "name": "assetId",
          "type": "uint256"
        }
      ],
      "name": "exists",
      "outputs": [
        {
          "name": "",
          "type": "bool"
        }
      ],
      "payable": false,
      "stateMutability": "view",
      "type": "function"
    },
    {
      "constant": true,
      "inputs": [
        {
          "name": "x",
          "type": "int256"
        },
        {
          "name": "y",
          "type": "int256"
        }
      ],
      "name": "ownerOfLand",
      "outputs": [
        {
          "name": "",
          "type": "address"
        }
      ],
      "payable": false,
      "stateMutability": "view",
      "type": "function"
    },
    {
      "constant": true,
      "inputs": [
        {
          "name": "x",
          "type": "int256[]"
        },
        {
          "name": "y",
          "type": "int256[]"
        }
      ],
      "name": "ownerOfLandMany",
      "outputs": [
        {
          "name": "",
          "type": "address[]"
        }
      ],
      "payable": false,
      "stateMutability": "view",
      "type": "function"
    },
    {
      "constant": true,
      "inputs": [
        {
          "name": "owner",
          "type": "address"
        }
      ],
      "name": "landOf",
      "outputs": [
        {
          "name": "",
          "type": "int256[]"
        },
        {
          "name": "",
          "type": "int256[]"
        }
      ],
      "payable": false,
      "stateMutability": "view",
      "type": "function"
    },
    {
      "constant": true,
      "inputs": [
        {
          "name": "x",
          "type": "int256"
        },
        {
          "name": "y",
          "type": "int256"
        }
      ],
      "name": "landData",
      "outputs": [
        {
          "name": "",
          "type": "string"
        }
      ],
      "payable": false,
      "stateMutability": "view",
      "type": "function"
    },
    {
      "constant": false,
      "inputs": [
        {
          "name": "x",
          "type": "int256"
        },
        {
          "name": "y",
          "type": "int256"
        },
        {
          "name": "to",
          "type": "address"
        }
      ],
      "name": "transferLand",
      "outputs": [],
      "payable": false,
      "stateMutability": "nonpayable",
      "type": "function"
    },
    {
      "constant": false,
      "inputs": [
        {
          "name": "x",
          "type": "int256[]"
        },
        {
          "name": "y",
          "type": "int256[]"
        },
        {
          "name": "to",
          "type": "address"
        }
      ],
      "name": "transferManyLand",
      "outputs": [],
      "payable": false,
      "stateMutability": "nonpayable",
      "type": "function"
    },
    {
      "constant": false,
      "inputs": [
        {
          "name": "x",
          "type": "int256"
        },
        {
          "name": "y",
          "type": "int256"
        },
        {
          "name": "data",
          "type": "string"
        }
      ],
      "name": "updateLandData",
      "outputs": [],
      "payable": false,
      "stateMutability": "nonpayable",
      "type": "function"
    },
    {
      "constant": false,
      "inputs": [
        {
          "name": "x",
          "type": "int256[]"
        },
        {
          "name": "y",
          "type": "int256[]"
        },
        {
          "name": "data",
          "type": "string"
        }
      ],
      "name": "updateManyLandData",
      "outputs": [],
      "payable": false,
      "stateMutability": "nonpayable",
      "type": "function"
    }
  ],
  "bytecode": "0x60606040527394405c3223089a942b7597db96dc60fca17b0e3a601060006101000a81548173ffffffffffffffffffffffffffffffffffffffff021916908373ffffffffffffffffffffffffffffffffffffffff16021790555033600360006101000a81548173ffffffffffffffffffffffffffffffffffffffff021916908373ffffffffffffffffffffffffffffffffffffffff160217905550613d54806100a96000396000f300606060405260043610610204576000357c0100000000000000000000000000000000000000000000000000000000900463ffffffff168063025313a21461020957806306fdde031461025e5780631080f251146102ec578063133cbe3a1461035857806318160ddd146103915780631cc69ac1146103ba5780631d4b11e4146104055780631e4c7736146104f45780632c62fa10146105d157806333683ec61461065f578063341f13f2146106c257806335e64aaa146106fb57806342526e4e14610746578063439fab91146107e35780634c4bf936146108405780634dad9003146108e55780634f558e791461099e57806355ef2913146109d95780635c36b18614610a495780636fb7e58814610a5e578063721d7d8e14610a9e5780637284e41614610af35780637efd911214610b815780638668a41614610bbf578063885363eb14610c785780638da5cb5b14610d4e57806395d89b4114610da35780639cf6699714610e315780639d11877014610ecb578063a8d8812714610eee578063a9059cbb14610f32578063ac823a7e14610f74578063b0994d4a14611010578063b2d96b8114611054578063be45fd62146110f0578063bffa925814611175578063d2953f84146111c2578063d4dd159414611218578063dbacc23714611287578063e9b07bbf146112ea578063f2fde38b146113b2578063fd7a1b00146113eb575b600080fd5b341561021457600080fd5b61021c611424565b604051808273ffffffffffffffffffffffffffffffffffffffff1673ffffffffffffffffffffffffffffffffffffffff16815260200191505060405180910390f35b341561026957600080fd5b61027161144a565b6040518080602001828103825283818151815260200191508051906020019080838360005b838110156102b1578082015181840152602081019050610296565b50505050905090810190601f1680156102de5780820380516001836020036101000a031916815260200191505b509250505060405180910390f35b34156102f757600080fd5b61031660048080359060200190919080359060200190919050506114f2565b604051808273ffffffffffffffffffffffffffffffffffffffff1673ffffffffffffffffffffffffffffffffffffffff16815260200191505060405180910390f35b341561036357600080fd5b61038f600480803573ffffffffffffffffffffffffffffffffffffffff1690602001909190505061150e565b005b341561039c57600080fd5b6103a46115ae565b6040518082815260200191505060405180910390f35b34156103c557600080fd5b610403600480803590602001909190803590602001909190803573ffffffffffffffffffffffffffffffffffffffff169060200190919050506115b8565b005b341561041057600080fd5b61049d60048080359060200190820180359060200190808060200260200160405190810160405280939291908181526020018383602002808284378201915050505050509190803590602001908201803590602001908080602002602001604051908101604052809392919081815260200183836020028082843782019150505050505091905050611639565b6040518080602001828103825283818151815260200191508051906020019060200280838360005b838110156104e05780820151818401526020810190506104c5565b505050509050019250505060405180910390f35b34156104ff57600080fd5b6105cf6004808035906020019082018035906020019080806020026020016040519081016040528093929190818152602001838360200280828437820191505050505050919080359060200190820180359060200190808060200260200160405190810160405280939291908181526020018383602002808284378201915050505050509190803590602001908201803590602001908080601f01602080910402602001604051908101604052809392919081815260200183838082843782019150505050505091905050611734565b005b34156105dc57600080fd5b610608600480803573ffffffffffffffffffffffffffffffffffffffff169060200190919050506117a0565b6040518080602001828103825283818151815260200191508051906020019060200280838360005b8381101561064b578082015181840152602081019050610630565b505050509050019250505060405180910390f35b341561066a57600080fd5b610680600480803590602001909190505061183d565b604051808273ffffffffffffffffffffffffffffffffffffffff1673ffffffffffffffffffffffffffffffffffffffff16815260200191505060405180910390f35b34156106cd57600080fd5b6106f9600480803573ffffffffffffffffffffffffffffffffffffffff169060200190919050506118a5565b005b341561070657600080fd5b610744600480803590602001909190803590602001909190803573ffffffffffffffffffffffffffffffffffffffff16906020019091905050611959565b005b341561075157600080fd5b6107a1600480803590602001908201803590602001908080601f01602080910402602001604051908101604052809392919081815260200183838082843782019150505050505091905050611971565b604051808273ffffffffffffffffffffffffffffffffffffffff1673ffffffffffffffffffffffffffffffffffffffff16815260200191505060405180910390f35b34156107ee57600080fd5b61083e600480803590602001908201803590602001908080601f01602080910402602001604051908101604052809392919081815260200183838082843782019150505050505091905050611a3e565b005b341561084b57600080fd5b61086a6004808035906020019091908035906020019091905050611b55565b6040518080602001828103825283818151815260200191508051906020019080838360005b838110156108aa57808201518184015260208101905061088f565b50505050905090810190601f1680156108d75780820380516001836020036101000a031916815260200191505b509250505060405180910390f35b34156108f057600080fd5b61099c6004808035906020019082018035906020019080806020026020016040519081016040528093929190818152602001838360200280828437820191505050505050919080359060200190820180359060200190808060200260200160405190810160405280939291908181526020018383602002808284378201915050505050509190803573ffffffffffffffffffffffffffffffffffffffff16906020019091905050611b77565b005b34156109a957600080fd5b6109bf6004808035906020019091905050611beb565b604051808215151515815260200191505060405180910390f35b34156109e457600080fd5b610a2f600480803573ffffffffffffffffffffffffffffffffffffffff1690602001909190803573ffffffffffffffffffffffffffffffffffffffff16906020019091905050611c41565b604051808215151515815260200191505060405180910390f35b3415610a5457600080fd5b610a5c611cd5565b005b3415610a6957600080fd5b610a886004808035906020019091908035906020019091905050611d1b565b6040518082815260200191505060405180910390f35b3415610aa957600080fd5b610ab1611d6f565b604051808273ffffffffffffffffffffffffffffffffffffffff1673ffffffffffffffffffffffffffffffffffffffff16815260200191505060405180910390f35b3415610afe57600080fd5b610b06611d94565b6040518080602001828103825283818151815260200191508051906020019080838360005b83811015610b46578082015181840152602081019050610b2b565b50505050905090810190601f168015610b735780820380516001836020036101000a031916815260200191505b509250505060405180910390f35b3415610b8c57600080fd5b610ba26004808035906020019091905050611e3c565b604051808381526020018281526020019250505060405180910390f35b3415610bca57600080fd5b610c766004808035906020019082018035906020019080806020026020016040519081016040528093929190818152602001838360200280828437820191505050505050919080359060200190820180359060200190808060200260200160405190810160405280939291908181526020018383602002808284378201915050505050509190803573ffffffffffffffffffffffffffffffffffffffff16906020019091905050611ea1565b005b3415610c8357600080fd5b610caf600480803573ffffffffffffffffffffffffffffffffffffffff16906020019091905050611f6e565b604051808060200180602001838103835285818151815260200191508051906020019060200280838360005b83811015610cf6578082015181840152602081019050610cdb565b50505050905001838103825284818151815260200191508051906020019060200280838360005b83811015610d38578082015181840152602081019050610d1d565b5050505090500194505050505060405180910390f35b3415610d5957600080fd5b610d6161216c565b604051808273ffffffffffffffffffffffffffffffffffffffff1673ffffffffffffffffffffffffffffffffffffffff16815260200191505060405180910390f35b3415610dae57600080fd5b610db6612192565b6040518080602001828103825283818151815260200191508051906020019080838360005b83811015610df6578082015181840152602081019050610ddb565b50505050905090810190601f168015610e235780820380516001836020036101000a031916815260200191505b509250505060405180910390f35b3415610e3c57600080fd5b610ec96004808035906020019082018035906020019080806020026020016040519081016040528093929190818152602001838360200280828437820191505050505050919080359060200190820180359060200190808060200260200160405190810160405280939291908181526020018383602002808284378201915050505050509190505061223a565b005b3415610ed657600080fd5b610eec600480803590602001909190505061230d565b005b3415610ef957600080fd5b610f186004808035906020019091908035906020019091905050612372565b604051808215151515815260200191505060405180910390f35b3415610f3d57600080fd5b610f72600480803573ffffffffffffffffffffffffffffffffffffffff1690602001909190803590602001909190505061238e565b005b3415610f7f57600080fd5b610f9560048080359060200190919050506123c0565b6040518080602001828103825283818151815260200191508051906020019080838360005b83811015610fd5578082015181840152602081019050610fba565b50505050905090810190601f1680156110025780820380516001836020036101000a031916815260200191505b509250505060405180910390f35b341561101b57600080fd5b611052600480803573ffffffffffffffffffffffffffffffffffffffff16906020019091908035151590602001909190505061247b565b005b341561105f57600080fd5b6110756004808035906020019091905050612533565b6040518080602001828103825283818151815260200191508051906020019080838360005b838110156110b557808201518184015260208101905061109a565b50505050905090810190601f1680156110e25780820380516001836020036101000a031916815260200191505b509250505060405180910390f35b34156110fb57600080fd5b611173600480803573ffffffffffffffffffffffffffffffffffffffff1690602001909190803590602001909190803590602001908201803590602001908080601f01602080910402602001604051908101604052809392919081815260200183838082843782019150505050505091905050612647565b005b341561118057600080fd5b6111ac600480803573ffffffffffffffffffffffffffffffffffffffff1690602001909190505061266a565b6040518082815260200191505060405180910390f35b34156111cd57600080fd5b611202600480803573ffffffffffffffffffffffffffffffffffffffff169060200190919080359060200190919050506126b6565b6040518082815260200191505060405180910390f35b341561122357600080fd5b611285600480803590602001909190803590602001909190803590602001908201803590602001908080601f01602080910402602001604051908101604052809392919081815260200183838082843782019150505050505091905050612786565b005b341561129257600080fd5b6112a8600480803590602001909190505061285a565b604051808273ffffffffffffffffffffffffffffffffffffffff1673ffffffffffffffffffffffffffffffffffffffff16815260200191505060405180910390f35b34156112f557600080fd5b6113b0600480803573ffffffffffffffffffffffffffffffffffffffff1690602001909190803590602001909190803590602001908201803590602001908080601f0160208091040260200160405190810160405280939291908181526020018383808284378201915050505050509190803590602001908201803590602001908080601f01602080910402602001604051908101604052809392919081815260200183838082843782019150505050505091905050612897565b005b34156113bd57600080fd5b6113e9600480803573ffffffffffffffffffffffffffffffffffffffff169060200190919050506128aa565b005b34156113f657600080fd5b611422600480803573ffffffffffffffffffffffffffffffffffffffff169060200190919050506129a4565b005b600160009054906101000a900473ffffffffffffffffffffffffffffffffffffffff1681565b611452613bba565b60048054600181600116156101000203166002900480601f0160208091040260200160405190810160405280929190818152602001828054600181600116156101000203166002900480156114e85780601f106114bd576101008083540402835291602001916114e8565b820191906000526020600020905b8154815290600101906020018083116114cb57829003601f168201915b5050505050905090565b60006115066115018484611d1b565b61285a565b905092915050565b600360009054906101000a900473ffffffffffffffffffffffffffffffffffffffff1673ffffffffffffffffffffffffffffffffffffffff163373ffffffffffffffffffffffffffffffffffffffff1614151561156757fe5b42600e60008373ffffffffffffffffffffffffffffffffffffffff1673ffffffffffffffffffffffffffffffffffffffff1681526020019081526020016000208190555050565b6000600754905090565b600f60003373ffffffffffffffffffffffffffffffffffffffff1673ffffffffffffffffffffffffffffffffffffffff16815260200190815260200160002060009054906101000a900460ff16151561161057600080fd5b61163461161d8484611d1b565b826020604051908101604052806000815250612a58565b505050565b611641613bce565b611649613bce565b600080855111151561165a57600080fd5b8351855114151561166a57600080fd5b84516040518059106116795750595b90808252806020026020018201604052509150600090505b8451811015611729576116d285828151811015156116ab57fe5b9060200190602002015185838151811015156116c357fe5b906020019060200201516114f2565b82828151811015156116e057fe5b9060200190602002019073ffffffffffffffffffffffffffffffffffffffff16908173ffffffffffffffffffffffffffffffffffffffff16815250508080600101915050611691565b819250505092915050565b60008251845114151561174657600080fd5b600090505b835181101561179a5761178d848281518110151561176557fe5b90602001906020020151848381518110151561177d57fe5b9060200190602002015184612786565b808060010191505061174b565b50505050565b6117a8613be2565b600860008373ffffffffffffffffffffffffffffffffffffffff1673ffffffffffffffffffffffffffffffffffffffff16815260200190815260200160002080548060200260200160405190810160405280929190818152602001828054801561183157602002820191906000526020600020905b81548152602001906001019080831161181d575b50505050509050919050565b6000806009600084815260200190815260200160002060009054906101000a900473ffffffffffffffffffffffffffffffffffffffff16905060008173ffffffffffffffffffffffffffffffffffffffff161415151561189c57600080fd5b80915050919050565b600360009054906101000a900473ffffffffffffffffffffffffffffffffffffffff1673ffffffffffffffffffffffffffffffffffffffff163373ffffffffffffffffffffffffffffffffffffffff161415156118fe57fe5b6001600f60008373ffffffffffffffffffffffffffffffffffffffff1673ffffffffffffffffffffffffffffffffffffffff16815260200190815260200160002060006101000a81548160ff02191690831515021790555050565b61196c816119678585611d1b565b61238e565b505050565b6000806000806000809350600186510392505b6000600184011115611a3257858381518110151561199e57fe5b9060200101517f010000000000000000000000000000000000000000000000000000000000000090047f0100000000000000000000000000000000000000000000000000000000000000027f0100000000000000000000000000000000000000000000000000000000000000900491506002600184885103030260100a820290508084019350828060019003935050611984565b83945050505050919050565b6040805190810160405280601181526020017f446563656e7472616c616e64204c414e4400000000000000000000000000000081525060049080519060200190611a89929190613bf6565b506040805190810160405280600481526020017f4c414e440000000000000000000000000000000000000000000000000000000081525060059080519060200190611ad5929190613bf6565b50606060405190810160405280603381526020017f436f6e747261637420746861742073746f7265732074686520446563656e747281526020017f616c616e64204c414e442072656769737472790000000000000000000000000081525060069080519060200190611b48929190613bf6565b50611b5281612bbe565b50565b611b5d613bba565b611b6f611b6a8484611d1b565b6123c0565b905092915050565b600082518451141515611b8957600080fd5b600090505b8351811015611be557611bd882611bd38684815181101515611bac57fe5b906020019060200201518685815181101515611bc457fe5b90602001906020020151611d1b565b61238e565b8080600101915050611b8e565b50505050565b6000806009600084815260200190815260200160002060009054906101000a900473ffffffffffffffffffffffffffffffffffffffff1673ffffffffffffffffffffffffffffffffffffffff1614159050919050565b6000600c60008373ffffffffffffffffffffffffffffffffffffffff1673ffffffffffffffffffffffffffffffffffffffff16815260200190815260200160002060008473ffffffffffffffffffffffffffffffffffffffff1673ffffffffffffffffffffffffffffffffffffffff16815260200190815260200160002060009054906101000a900460ff16905092915050565b42600e60003373ffffffffffffffffffffffffffffffffffffffff1673ffffffffffffffffffffffffffffffffffffffff16815260200190815260200160002081905550565b60006fffffffffffffffffffffffffffffffff82167fffffffffffffffffffffffffffffffff0000000000000000000000000000000070010000000000000000000000000000000085021617905092915050565b6000809054906101000a900473ffffffffffffffffffffffffffffffffffffffff1681565b611d9c613bba565b60068054600181600116156101000203166002900480601f016020809104026020016040519081016040528092919081815260200182805460018160011615610100020316600290048015611e325780601f10611e0757610100808354040283529160200191611e32565b820191906000526020600020905b815481529060010190602001808311611e1557829003601f168201915b5050505050905090565b60008060008060807fffffffffffffffffffffffffffffffff0000000000000000000000000000000086169060020a900491506fffffffffffffffffffffffffffffffff85169050611e8d82612c0a565b611e9682612c0a565b935093505050915091565b6000600f60003373ffffffffffffffffffffffffffffffffffffffff1673ffffffffffffffffffffffffffffffffffffffff16815260200190815260200160002060009054906101000a900460ff161515611efb57600080fd5b600090505b8351811015611f6857611f5b611f448583815181101515611f1d57fe5b906020019060200201518584815181101515611f3557fe5b90602001906020020151611d1b565b836020604051908101604052806000815250612a58565b8080600101915050611f00565b50505050565b611f76613c76565b611f7e613c76565b611f86613c76565b611f8e613c76565b600080600080600860008a73ffffffffffffffffffffffffffffffffffffffff1673ffffffffffffffffffffffffffffffffffffffff16815260200190815260200160002080549050604051805910611fe45750595b90808252806020026020018201604052509550600860008a73ffffffffffffffffffffffffffffffffffffffff1673ffffffffffffffffffffffffffffffffffffffff168152602001908152602001600020805490506040518059106120475750595b90808252806020026020018201604052509450600860008a73ffffffffffffffffffffffffffffffffffffffff1673ffffffffffffffffffffffffffffffffffffffff168152602001908152602001600020805490509150600090505b8181101561215b5761210c600860008b73ffffffffffffffffffffffffffffffffffffffff1673ffffffffffffffffffffffffffffffffffffffff168152602001908152602001600020828154811015156120fb57fe5b906000526020600020900154611e3c565b809450819550505083868281518110151561212357fe5b906020019060200201818152505082858281518110151561214057fe5b906020019060200201818152505080806001019150506120a4565b858597509750505050505050915091565b600360009054906101000a900473ffffffffffffffffffffffffffffffffffffffff1681565b61219a613bba565b60058054600181600116156101000203166002900480601f0160208091040260200160405190810160405280929190818152602001828054600181600116156101000203166002900480156122305780601f1061220557610100808354040283529160200191612230565b820191906000526020600020905b81548152906001019060200180831161221357829003601f168201915b5050505050905090565b60008060008351855114151561224f57600080fd5b600092505b845183101561230657612295858481518110151561226e57fe5b90602001906020020151858581518110151561228657fe5b90602001906020020151611d1b565b91506122a08261285a565b90506301e133804203600e60008373ffffffffffffffffffffffffffffffffffffffff1673ffffffffffffffffffffffffffffffffffffffff1681526020019081526020016000205410156122f9576122f882612c5a565b5b8280600101935050612254565b5050505050565b600360009054906101000a900473ffffffffffffffffffffffffffffffffffffffff1673ffffffffffffffffffffffffffffffffffffffff163373ffffffffffffffffffffffffffffffffffffffff1614151561236657fe5b61236f81612c5a565b50565b60006123866123818484611d1b565b611beb565b905092915050565b6123bc8282602060405190810160405280600081525060006020604051908101604052806000815250612d74565b5050565b6123c8613bba565b600b60008381526020019081526020016000208054600181600116156101000203166002900480601f01602080910402602001604051908101604052809291908181526020018280546001816001161561010002031660029004801561246f5780601f106124445761010080835404028352916020019161246f565b820191906000526020600020905b81548152906001019060200180831161245257829003601f168201915b50505050509050919050565b80156124a65761248b8233611c41565b15151561249757600080fd5b6124a18233612ed5565b6124c6565b6124b08233611c41565b15156124bb57600080fd5b6124c58233612f6e565b5b3373ffffffffffffffffffffffffffffffffffffffff168273ffffffffffffffffffffffffffffffffffffffff167ffe1dcbb12493a4af760875b0c328b264e6397b8bd47cdc249df0444b4daf1cbc83604051808215151515815260200191505060405180910390a35050565b61253b613bba565b60006009600084815260200190815260200160002060009054906101000a900473ffffffffffffffffffffffffffffffffffffffff1673ffffffffffffffffffffffffffffffffffffffff161415151561259457600080fd5b600b60008381526020019081526020016000208054600181600116156101000203166002900480601f01602080910402602001604051908101604052809291908181526020018280546001816001161561010002031660029004801561263b5780601f106126105761010080835404028352916020019161263b565b820191906000526020600020905b81548152906001019060200180831161261e57829003601f168201915b50505050509050919050565b61266583838360006020604051908101604052806000815250612d74565b505050565b6000600860008373ffffffffffffffffffffffffffffffffffffffff1673ffffffffffffffffffffffffffffffffffffffff168152602001908152602001600020805490509050919050565b6000600860008473ffffffffffffffffffffffffffffffffffffffff1673ffffffffffffffffffffffffffffffffffffffff168152602001908152602001600020805490508210151561270857600080fd5b6f800000000000000000000000000000008210151561272657600080fd5b600860008473ffffffffffffffffffffffffffffffffffffffff1673ffffffffffffffffffffffffffffffffffffffff1681526020019081526020016000208281548110151561277257fe5b906000526020600020900154905092915050565b6127908383611d1b565b3373ffffffffffffffffffffffffffffffffffffffff166009600083815260200190815260200160002060009054906101000a900473ffffffffffffffffffffffffffffffffffffffff1673ffffffffffffffffffffffffffffffffffffffff1614806128365750612835336009600084815260200190815260200160002060009054906101000a900473ffffffffffffffffffffffffffffffffffffffff16611c41565b5b151561284157600080fd5b61285461284e8585611d1b565b83613007565b50505050565b60006009600083815260200190815260200160002060009054906101000a900473ffffffffffffffffffffffffffffffffffffffff169050919050565b6128a48484843385612d74565b50505050565b600360009054906101000a900473ffffffffffffffffffffffffffffffffffffffff1673ffffffffffffffffffffffffffffffffffffffff163373ffffffffffffffffffffffffffffffffffffffff1614151561290357fe5b600360009054906101000a900473ffffffffffffffffffffffffffffffffffffffff1673ffffffffffffffffffffffffffffffffffffffff168173ffffffffffffffffffffffffffffffffffffffff161415151561296057600080fd5b80600360006101000a81548173ffffffffffffffffffffffffffffffffffffffff021916908373ffffffffffffffffffffffffffffffffffffffff16021790555050565b600360009054906101000a900473ffffffffffffffffffffffffffffffffffffffff1673ffffffffffffffffffffffffffffffffffffffff163373ffffffffffffffffffffffffffffffffffffffff161415156129fd57fe5b6000600f60008373ffffffffffffffffffffffffffffffffffffffff1673ffffffffffffffffffffffffffffffffffffffff16815260200190815260200160002060006101000a81548160ff02191690831515021790555050565b60006009600085815260200190815260200160002060009054906101000a900473ffffffffffffffffffffffffffffffffffffffff1673ffffffffffffffffffffffffffffffffffffffff16141515612ab057600080fd5b612abb828483613145565b828273ffffffffffffffffffffffffffffffffffffffff1660007f8988d59efc2c4547ef86c88f6543963bab0cea94f8e486e619c7c3a790db93be3385604051808373ffffffffffffffffffffffffffffffffffffffff1673ffffffffffffffffffffffffffffffffffffffff1681526020018060200180602001838103835284818151815260200191508051906020019080838360005b83811015612b6e578082015181840152602081019050612b53565b50505050905090810190601f168015612b9b5780820380516001836020036101000a031916815260200191505b5083810382526000815260200160200194505050505060405180910390a4505050565b612bc781611971565b600360006101000a81548173ffffffffffffffffffffffffffffffffffffffff021916908373ffffffffffffffffffffffffffffffffffffffff16021790555050565b6000806f800000000000000000000000000000008316141515612c51577fffffffffffffffffffffffffffffffff0000000000000000000000000000000082179050612c55565b8190505b919050565b60006009600083815260200190815260200160002060009054906101000a900473ffffffffffffffffffffffffffffffffffffffff16905060008173ffffffffffffffffffffffffffffffffffffffff1614151515612cb857600080fd5b612cc2818361317c565b612ccb82613459565b8160008273ffffffffffffffffffffffffffffffffffffffff167f8988d59efc2c4547ef86c88f6543963bab0cea94f8e486e619c7c3a790db93be33604051808273ffffffffffffffffffffffffffffffffffffffff1673ffffffffffffffffffffffffffffffffffffffff1681526020018060200180602001838103835260008152602001602001838103825260008152602001602001935050505060405180910390a45050565b8460008173ffffffffffffffffffffffffffffffffffffffff1614151515612d9b57600080fd5b84868073ffffffffffffffffffffffffffffffffffffffff166009600084815260200190815260200160002060009054906101000a900473ffffffffffffffffffffffffffffffffffffffff1673ffffffffffffffffffffffffffffffffffffffff1614151515612e0b57600080fd5b863373ffffffffffffffffffffffffffffffffffffffff166009600083815260200190815260200160002060009054906101000a900473ffffffffffffffffffffffffffffffffffffffff1673ffffffffffffffffffffffffffffffffffffffff161480612eb25750612eb1336009600084815260200190815260200160002060009054906101000a900473ffffffffffffffffffffffffffffffffffffffff16611c41565b5b1515612ebd57600080fd5b612eca8989898989613494565b505050505050505050565b6001600c60008373ffffffffffffffffffffffffffffffffffffffff1673ffffffffffffffffffffffffffffffffffffffff16815260200190815260200160002060008473ffffffffffffffffffffffffffffffffffffffff1673ffffffffffffffffffffffffffffffffffffffff16815260200190815260200160002060006101000a81548160ff0219169083151502179055505050565b6000600c60008373ffffffffffffffffffffffffffffffffffffffff1673ffffffffffffffffffffffffffffffffffffffff16815260200190815260200160002060008473ffffffffffffffffffffffffffffffffffffffff1673ffffffffffffffffffffffffffffffffffffffff16815260200190815260200160002060006101000a81548160ff0219169083151502179055505050565b61301082611beb565b151561301b57600080fd5b80600b60008481526020019081526020016000209080519060200190613042929190613bf6565b503373ffffffffffffffffffffffffffffffffffffffff166009600084815260200190815260200160002060009054906101000a900473ffffffffffffffffffffffffffffffffffffffff1673ffffffffffffffffffffffffffffffffffffffff16837f47c705b9219229ad762fca605f08fb024a3415d0ae78af5d319820c72e510414846040518080602001828103825283818151815260200191508051906020019080838360005b838110156131075780820151818401526020810190506130ec565b50505050905090810190601f1680156131345780820380516001836020036101000a031916815260200191505b509250505060405180910390a45050565b61314f8383613916565b80600b60008481526020019081526020016000209080519060200190613176929190613bf6565b50505050565b6000806000600a60008581526020019081526020016000205492506131b360016131a58761266a565b613a1490919063ffffffff16565b9150600860008673ffffffffffffffffffffffffffffffffffffffff1673ffffffffffffffffffffffffffffffffffffffff1681526020019081526020016000208281548110151561320157fe5b906000526020600020900154905060006009600086815260200190815260200160002060006101000a81548173ffffffffffffffffffffffffffffffffffffffff021916908373ffffffffffffffffffffffffffffffffffffffff16021790555080600860008773ffffffffffffffffffffffffffffffffffffffff1673ffffffffffffffffffffffffffffffffffffffff168152602001908152602001600020848154811015156132af57fe5b9060005260206000209001819055506000600860008773ffffffffffffffffffffffffffffffffffffffff1673ffffffffffffffffffffffffffffffffffffffff1681526020019081526020016000208381548110151561330c57fe5b906000526020600020900181905550600860008673ffffffffffffffffffffffffffffffffffffffff1673ffffffffffffffffffffffffffffffffffffffff16815260200190815260200160002080548091906001900361336d9190613c8a565b506000600860008773ffffffffffffffffffffffffffffffffffffffff1673ffffffffffffffffffffffffffffffffffffffff16815260200190815260200160002080549050141561340557600860008673ffffffffffffffffffffffffffffffffffffffff1673ffffffffffffffffffffffffffffffffffffffff16815260200190815260200160002060006134049190613cb6565b5b6000600a60008681526020019081526020016000208190555082600a60008381526020019081526020016000208190555061344c6001600754613a1490919063ffffffff16565b6007819055505050505050565b6020604051908101604052806000815250600b60008381526020019081526020016000209080519060200190613490929190613bf6565b5050565b6000806009600087815260200190815260200160002060009054906101000a900473ffffffffffffffffffffffffffffffffffffffff1691506134d7828761317c565b6134e18787613916565b6134ea87613a2d565b156137a157600d60009054906101000a900460ff1615151561350b57600080fd5b6001600d60006101000a81548160ff021916908315150217905550613565876040805190810160405280600c81526020017f494173736574486f6c6465720000000000000000000000000000000000000000815250613a40565b905060008173ffffffffffffffffffffffffffffffffffffffff161415151561358d57600080fd5b8073ffffffffffffffffffffffffffffffffffffffff16633bde307287848a8989896040518763ffffffff167c0100000000000000000000000000000000000000000000000000000000028152600401808781526020018673ffffffffffffffffffffffffffffffffffffffff1673ffffffffffffffffffffffffffffffffffffffff1681526020018573ffffffffffffffffffffffffffffffffffffffff1673ffffffffffffffffffffffffffffffffffffffff168152602001806020018473ffffffffffffffffffffffffffffffffffffffff1673ffffffffffffffffffffffffffffffffffffffff16815260200180602001838103835286818151815260200191508051906020019080838360005b838110156136ba57808201518184015260208101905061369f565b50505050905090810190601f1680156136e75780820380516001836020036101000a031916815260200191505b50838103825284818151815260200191508051906020019080838360005b83811015613720578082015181840152602081019050613705565b50505050905090810190601f16801561374d5780820380516001836020036101000a031916815260200191505b5098505050505050505050600060405180830381600087803b151561377157600080fd5b6102c65a03f1151561378257600080fd5b5050506000600d60006101000a81548160ff0219169083151502179055505b858773ffffffffffffffffffffffffffffffffffffffff168373ffffffffffffffffffffffffffffffffffffffff167f8988d59efc2c4547ef86c88f6543963bab0cea94f8e486e619c7c3a790db93be878988604051808473ffffffffffffffffffffffffffffffffffffffff1673ffffffffffffffffffffffffffffffffffffffff1681526020018060200180602001838103835285818151815260200191508051906020019080838360005b8381101561386a57808201518184015260208101905061384f565b50505050905090810190601f1680156138975780820380516001836020036101000a031916815260200191505b50838103825284818151815260200191508051906020019080838360005b838110156138d05780820151818401526020810190506138b5565b50505050905090810190601f1680156138fd5780820380516001836020036101000a031916815260200191505b509550505050505060405180910390a450505050505050565b6000826009600084815260200190815260200160002060006101000a81548173ffffffffffffffffffffffffffffffffffffffff021916908373ffffffffffffffffffffffffffffffffffffffff1602179055506139738361266a565b9050600860008473ffffffffffffffffffffffffffffffffffffffff1673ffffffffffffffffffffffffffffffffffffffff16815260200190815260200160002080548060010182816139c69190613cd7565b91600052602060002090016000849091909150555080600a600084815260200190815260200160002081905550613a096001600754613b9c90919063ffffffff16565b600781905550505050565b6000828211151515613a2257fe5b818303905092915050565b600080823b905060008111915050919050565b6000601060009054906101000a900473ffffffffffffffffffffffffffffffffffffffff1673ffffffffffffffffffffffffffffffffffffffff1663aabbb8ca84846040518082805190602001908083835b602083101515613ab75780518252602082019150602081019050602083039250613a92565b6001836020036101000a03801982511681845116808217855250505050505090500191505060405180910390206000604051602001526040518363ffffffff167c0100000000000000000000000000000000000000000000000000000000028152600401808373ffffffffffffffffffffffffffffffffffffffff1673ffffffffffffffffffffffffffffffffffffffff168152602001826000191660001916815260200192505050602060405180830381600087803b1515613b7957600080fd5b6102c65a03f11515613b8a57600080fd5b50505060405180519050905092915050565b6000808284019050838110151515613bb057fe5b8091505092915050565b602060405190810160405280600081525090565b602060405190810160405280600081525090565b602060405190810160405280600081525090565b828054600181600116156101000203166002900490600052602060002090601f016020900481019282601f10613c3757805160ff1916838001178555613c65565b82800160010185558215613c65579182015b82811115613c64578251825591602001919060010190613c49565b5b509050613c729190613d03565b5090565b602060405190810160405280600081525090565b815481835581811511613cb157818360005260206000209182019101613cb09190613d03565b5b505050565b5080546000825590600052602060002090810190613cd49190613d03565b50565b815481835581811511613cfe57818360005260206000209182019101613cfd9190613d03565b5b505050565b613d2591905b80821115613d21576000816000905550600101613d09565b5090565b905600a165627a7a72305820245572630d4612263ade812a5ff040f1a86797a02b787070cc5f9a7fb80b3a510029",
  "source": "pragma solidity ^0.4.18;\n\nimport '../Storage.sol';\n\nimport '../upgradable/Ownable.sol';\n\nimport '../upgradable/IApplication.sol';\n\nimport 'erc821/contracts/StandardAssetRegistry.sol';\n\nimport './ILANDRegistry.sol';\n\ncontract LANDRegistry is Storage,\n  Ownable, StandardAssetRegistry,\n  ILANDRegistry\n{\n\n  function initialize(bytes data) public {\n    _name = 'Decentraland LAND';\n    _symbol = 'LAND';\n    _description = 'Contract that stores the Decentraland LAND registry';\n    super.initialize(data);\n  }\n\n  function authorizeDeploy(address beneficiary) public onlyOwner {\n    authorizedDeploy[beneficiary] = true;\n  }\n  function forbidDeploy(address beneficiary) public onlyOwner {\n    authorizedDeploy[beneficiary] = false;\n  }\n\n  function assignNewParcel(int x, int y, address beneficiary) public {\n    require(authorizedDeploy[msg.sender]);\n    _generate(encodeTokenId(x, y), beneficiary, '');\n  }\n\n  function assignMultipleParcels(int[] x, int[] y, address beneficiary) public {\n    require(authorizedDeploy[msg.sender]);\n    for (uint i = 0; i < x.length; i++) {\n      _generate(encodeTokenId(x[i], y[i]), beneficiary, '');\n    }\n  }\n\n  function destroy(uint256 assetId) onlyOwner public {\n    _destroy(assetId);\n  }\n\n  //\n  // Inactive keys after 1 year lose ownership\n  //\n\n  function ping() public {\n    latestPing[msg.sender] = now;\n  }\n\n  function setLatestToNow(address user) onlyOwner public {\n    latestPing[user] = now;\n  }\n\n  function clearLand(int[] x, int[] y) public {\n    require(x.length == y.length);\n    for (uint i = 0; i < x.length; i++) {\n      uint landId = encodeTokenId(x[i], y[i]);\n      address holder = holderOf(landId);\n      if (latestPing[holder] < now - 1 years) {\n        _destroy(landId);\n      }\n    }\n  }\n\n  //\n  // LAND Getters\n  //\n\n  function encodeTokenId(int x, int y) view public returns (uint) {\n    return ((uint(x) * factor) & clearLow) | (uint(y) & clearHigh);\n  }\n\n  function decodeTokenId(uint value) view public returns (int, int) {\n    uint x = (value & clearLow) >> 128;\n    uint y = (value & clearHigh);\n    return (expandNegative128BitCast(x), expandNegative128BitCast(y));\n  }\n\n  function expandNegative128BitCast(uint value) pure internal returns (int) {\n    if (value & (1<<127) != 0) {\n      return int(value | clearLow);\n    }\n    return int(value);\n  }\n\n  function exists(int x, int y) view public returns (bool) {\n    return exists(encodeTokenId(x, y));\n  }\n\n  function ownerOfLand(int x, int y) view public returns (address) {\n    return holderOf(encodeTokenId(x, y));\n  }\n\n  function ownerOfLandMany(int[] x, int[] y) view public returns (address[]) {\n    require(x.length > 0);\n    require(x.length == y.length);\n\n    address[] memory addrs = new address[](x.length);\n    for (uint i = 0; i < x.length; i++) {\n      addrs[i] = ownerOfLand(x[i], y[i]);\n    }\n\n    return addrs;\n  }\n\n  function landOf(address owner) public view returns (int[], int[]) {\n    int[] memory x = new int[](_assetsOf[owner].length);\n    int[] memory y = new int[](_assetsOf[owner].length);\n\n    int assetX;\n    int assetY;\n    uint length = _assetsOf[owner].length;\n    for (uint i = 0; i < length; i++) {\n      (assetX, assetY) = decodeTokenId(_assetsOf[owner][i]);\n      x[i] = assetX;\n      y[i] = assetY;\n    }\n\n    return (x, y);\n  }\n\n  function landData(int x, int y) view public returns (string) {\n    return assetData(encodeTokenId(x, y));\n  }\n\n  //\n  // Transfer LAND\n  //\n\n  function transferLand(int x, int y, address to) public {\n    transfer(to, encodeTokenId(x, y));\n  }\n\n  function transferManyLand(int[] x, int[] y, address to) public {\n    require(x.length == y.length);\n    for (uint i = 0; i < x.length; i++) {\n      transfer(to, encodeTokenId(x[i], y[i]));\n    }\n  }\n\n  //\n  // Update LAND\n  //\n\n  function updateLandData(int x, int y, string data) public onlyOperatorOrHolder(encodeTokenId(x, y)) {\n    return _update(encodeTokenId(x, y), data);\n  }\n\n  function updateManyLandData(int[] x, int[] y, string data) public {\n    require(x.length == y.length);\n    for (uint i = 0; i < x.length; i++) {\n      updateLandData(x[i], y[i], data);\n    }\n  }\n}\n",
  "sourcePath": "/Users/abarmat/dev/decentraland/land/contracts/land/LANDRegistry.sol",
  "compiler": {
    "name": "solc",
    "version": "0.4.19+commit.c4cbbb05.Emscripten.clang"
  },
  "schemaVersion": "1.0.1",
  "updatedAt": "2018-02-08T15:16:20.893Z"
}