{
  "contractName": "ServiceLocator",
  "abi": [
    {
      "constant": false,
      "inputs": [
        {
          "name": "_namespace",
          "type": "string"
        },
        {
          "name": "_addr",
          "type": "address"
        },
        {
          "name": "_ttl",
          "type": "uint32"
        }
      ],
      "name": "set",
      "outputs": [],
      "payable": false,
      "stateMutability": "nonpayable",
      "type": "function"
    },
    {
      "constant": true,
      "inputs": [
        {
          "name": "_namespace",
          "type": "string"
        }
      ],
      "name": "get",
      "outputs": [
        {
          "name": "",
          "type": "address"
        }
      ],
      "payable": false,
      "stateMutability": "view",
      "type": "function"
    },
    {
      "constant": false,
      "inputs": [
        {
          "name": "_namespace",
          "type": "string"
        }
      ],
      "name": "remove",
      "outputs": [],
      "payable": false,
      "stateMutability": "nonpayable",
      "type": "function"
    },
    {
      "constant": true,
      "inputs": [],
      "name": "owner",
      "outputs": [
        {
          "name": "",
          "type": "address"
        }
      ],
      "payable": false,
      "stateMutability": "view",
      "type": "function"
    },
    {
      "constant": true,
      "inputs": [
        {
          "name": "_addr",
          "type": "address"
        }
      ],
      "name": "getNamespace",
      "outputs": [
        {
          "name": "",
          "type": "string"
        }
      ],
      "payable": false,
      "stateMutability": "view",
      "type": "function"
    },
    {
      "constant": false,
      "inputs": [
        {
          "name": "newOwner",
          "type": "address"
        }
      ],
      "name": "transferOwnership",
      "outputs": [],
      "payable": false,
      "stateMutability": "nonpayable",
      "type": "function"
    },
    {
      "anonymous": false,
      "inputs": [
        {
          "indexed": false,
          "name": "namespace",
          "type": "string"
        },
        {
          "indexed": false,
          "name": "registryAddr",
          "type": "address"
        },
        {
          "indexed": false,
          "name": "ttl",
          "type": "uint32"
        }
      ],
      "name": "Set",
      "type": "event"
    },
    {
      "anonymous": false,
      "inputs": [
        {
          "indexed": false,
          "name": "namespace",
          "type": "string"
        }
      ],
      "name": "Remove",
      "type": "event"
    },
    {
      "anonymous": false,
      "inputs": [
        {
          "indexed": true,
          "name": "previousOwner",
          "type": "address"
        },
        {
          "indexed": true,
          "name": "newOwner",
          "type": "address"
        }
      ],
      "name": "OwnershipTransferred",
      "type": "event"
    }
  ],
  "bytecode": "0x6060604052336000806101000a81548173ffffffffffffffffffffffffffffffffffffffff021916908373ffffffffffffffffffffffffffffffffffffffff160217905550610e0f806100536000396000f300606060405260043610610078576000357c0100000000000000000000000000000000000000000000000000000000900463ffffffff1680633ba9a5a21461007d578063693ec85e1461010857806380599e4b146101a55780638da5cb5b14610202578063d39451e314610257578063f2fde38b14610309575b600080fd5b341561008857600080fd5b610106600480803590602001908201803590602001908080601f0160208091040260200160405190810160405280939291908181526020018383808284378201915050505050509190803573ffffffffffffffffffffffffffffffffffffffff1690602001909190803563ffffffff16906020019091905050610342565b005b341561011357600080fd5b610163600480803590602001908201803590602001908080601f0160208091040260200160405190810160405280939291908181526020018383808284378201915050505050509190505061061e565b604051808273ffffffffffffffffffffffffffffffffffffffff1673ffffffffffffffffffffffffffffffffffffffff16815260200191505060405180910390f35b34156101b057600080fd5b610200600480803590602001908201803590602001908080601f01602080910402602001604051908101604052809392919081815260200183838082843782019150505050505091905050610725565b005b341561020d57600080fd5b610215610974565b604051808273ffffffffffffffffffffffffffffffffffffffff1673ffffffffffffffffffffffffffffffffffffffff16815260200191505060405180910390f35b341561026257600080fd5b61028e600480803573ffffffffffffffffffffffffffffffffffffffff16906020019091905050610999565b6040518080602001828103825283818151815260200191508051906020019080838360005b838110156102ce5780820151818401526020810190506102b3565b50505050905090810190601f1680156102fb5780820380516001836020036101000a031916815260200191505b509250505060405180910390f35b341561031457600080fd5b610340600480803573ffffffffffffffffffffffffffffffffffffffff16906020019091905050610b74565b005b6000809054906101000a900473ffffffffffffffffffffffffffffffffffffffff1673ffffffffffffffffffffffffffffffffffffffff163373ffffffffffffffffffffffffffffffffffffffff1614151561039d57600080fd5b6103a682610cc9565b15156103b157600080fd5b6060604051908101604052808373ffffffffffffffffffffffffffffffffffffffff1681526020014281526020018263ffffffff1681525060016000856040518082805190602001908083835b60208310151561042357805182526020820191506020810190506020830392506103fe565b6001836020036101000a03801982511681845116808217855250505050505090500191505060405180910390206000191660001916815260200190815260200160002060008201518160000160006101000a81548173ffffffffffffffffffffffffffffffffffffffff021916908373ffffffffffffffffffffffffffffffffffffffff1602179055506020820151816001015560408201518160020160006101000a81548163ffffffff021916908363ffffffff16021790555090505082600260008473ffffffffffffffffffffffffffffffffffffffff1673ffffffffffffffffffffffffffffffffffffffff1681526020019081526020016000209080519060200190610534929190610ce2565b507fd4808abc64e43e23e02a89f4ee56029cd2e449afbca36fb9280a54c5734b3f2d83838360405180806020018473ffffffffffffffffffffffffffffffffffffffff1673ffffffffffffffffffffffffffffffffffffffff1681526020018363ffffffff1663ffffffff168152602001828103825285818151815260200191508051906020019080838360005b838110156105dd5780820151818401526020810190506105c2565b50505050905090810190601f16801561060a5780820380516001836020036101000a031916815260200191505b5094505050505060405180910390a1505050565b60008060016000846040518082805190602001908083835b60208310151561065b5780518252602082019150602081019050602083039250610636565b6001836020036101000a038019825116818451168082178552505050505050905001915050604051809103902060001916600019168152602001908152602001600020905060008160020160009054906101000a900463ffffffff1663ffffffff161180156106e95750428160020160009054906101000a900463ffffffff1663ffffffff16826001015401105b156106f7576000915061071f565b8060000160009054906101000a900473ffffffffffffffffffffffffffffffffffffffff1691505b50919050565b60008060009054906101000a900473ffffffffffffffffffffffffffffffffffffffff1673ffffffffffffffffffffffffffffffffffffffff163373ffffffffffffffffffffffffffffffffffffffff1614151561078257600080fd5b816040518082805190602001908083835b6020831015156107b85780518252602082019150602081019050602083039250610793565b6001836020036101000a038019825116818451168082178552505050505050905001915050604051809103902090506002600060016000846000191660001916815260200190815260200160002060000160009054906101000a900473ffffffffffffffffffffffffffffffffffffffff1673ffffffffffffffffffffffffffffffffffffffff1673ffffffffffffffffffffffffffffffffffffffff16815260200190815260200160002060006108709190610d62565b600160008260001916600019168152602001908152602001600020600080820160006101000a81549073ffffffffffffffffffffffffffffffffffffffff021916905560018201600090556002820160006101000a81549063ffffffff021916905550507f834a2d47e948021d7136fb7275b3f1e1feae6333c0d683e8c13f901667defd8c826040518080602001828103825283818151815260200191508051906020019080838360005b8381101561093657808201518184015260208101905061091b565b50505050905090810190601f1680156109635780820380516001836020036101000a031916815260200191505b509250505060405180910390a15050565b6000809054906101000a900473ffffffffffffffffffffffffffffffffffffffff1681565b6109a1610daa565b600080600260008573ffffffffffffffffffffffffffffffffffffffff1673ffffffffffffffffffffffffffffffffffffffff168152602001908152602001600020915060016000836040518082805460018160011615610100020316600290048015610a455780601f10610a23576101008083540402835291820191610a45565b820191906000526020600020905b815481529060010190602001808311610a31575b5050915050604051809103902060001916600019168152602001908152602001600020905060008160020160009054906101000a900463ffffffff1663ffffffff16118015610ab35750428160020160009054906101000a900463ffffffff1663ffffffff16826001015401105b15610ad05760206040519081016040528060008152509250610b6d565b818054600181600116156101000203166002900480601f016020809104026020016040519081016040528092919081815260200182805460018160011615610100020316600290048015610b655780601f10610b3a57610100808354040283529160200191610b65565b820191906000526020600020905b815481529060010190602001808311610b4857829003601f168201915b505050505092505b5050919050565b6000809054906101000a900473ffffffffffffffffffffffffffffffffffffffff1673ffffffffffffffffffffffffffffffffffffffff163373ffffffffffffffffffffffffffffffffffffffff16141515610bcf57600080fd5b600073ffffffffffffffffffffffffffffffffffffffff168173ffffffffffffffffffffffffffffffffffffffff1614151515610c0b57600080fd5b8073ffffffffffffffffffffffffffffffffffffffff166000809054906101000a900473ffffffffffffffffffffffffffffffffffffffff1673ffffffffffffffffffffffffffffffffffffffff167f8be0079c531659141344cd1fd0a4f28419497f9722a3daafe3b4186f6b6457e060405160405180910390a3806000806101000a81548173ffffffffffffffffffffffffffffffffffffffff021916908373ffffffffffffffffffffffffffffffffffffffff16021790555050565b600080823b905060008163ffffffff1611915050919050565b828054600181600116156101000203166002900490600052602060002090601f016020900481019282601f10610d2357805160ff1916838001178555610d51565b82800160010185558215610d51579182015b82811115610d50578251825591602001919060010190610d35565b5b509050610d5e9190610dbe565b5090565b50805460018160011615610100020316600290046000825580601f10610d885750610da7565b601f016020900490600052602060002090810190610da69190610dbe565b5b50565b602060405190810160405280600081525090565b610de091905b80821115610ddc576000816000905550600101610dc4565b5090565b905600a165627a7a723058206e4f22ba80940ad3d139d1d2868c6942cdb985e52a8f16767755f5154d67e7f50029",
  "source": "pragma solidity ^0.4.18;\n\nimport \"zeppelin-solidity/contracts/ownership/Ownable.sol\";\n\ncontract ServiceLocator is Ownable {\n\n    struct Registry {\n        // address to resolve \n        address addr;\n        // last updated time\n        uint256 updated;\n        // time to live for this record\n        uint32 ttl; \n    }\n\n    mapping (bytes32 => Registry) registry;\n    mapping (address => string) ptr;\n\n    // EVENTS\n    event Set(string namespace, address registryAddr, uint32 ttl);\n    event Remove(string namespace);\n\n    /**\n     * @dev Gets the address for a provided namespace \n     *  in the service locator. \n     * @param _namespace - namespace string for the record.\n     * @return address for the stored record\n     */\n    function get(string _namespace) constant public returns (address) {\n        Registry storage r = registry[keccak256(_namespace)];\n        \n        if (r.ttl > 0 && r.updated + r.ttl < now) {\n            return address(0);\n        }\n        return r.addr;\n    }\n\n    /**\n     * @dev Gets the namespace for a provided address \n     *  in the service locator. \n     * @param _addr - address for the record.\n     * @return namespace for the stored record\n     */\n    function getNamespace(address _addr) constant public returns (string) {\n        string storage ns = ptr[_addr];\n\n        Registry storage r = registry[keccak256(ns)];\n        if (r.ttl > 0 && r.updated + r.ttl < now) {\n            return \"\";\n        }\n        return ns;\n    }\n\n    /**\n     * @dev Sets or Updates service locator registry\n     * @param _namespace - namespace string for the record.\n     * @param _addr - address of the contract to be stored.\n     * @param _ttl - How long in seconds will the record be valid. (0 means no ttl).\n     */\n    function set(string _namespace, address _addr, uint32 _ttl) onlyOwner public {\n        require(isContract(_addr));\n\n        registry[keccak256(_namespace)] = Registry({\n            addr: _addr,\n            updated: now,\n            ttl: _ttl\n        });\n\n        // saves reverse record. \n        ptr[_addr] = _namespace;\n        \n        Set(_namespace, _addr, _ttl);\n    }\n\n    /**\n     * @dev Removes a service locator registry\n     * @param _namespace - namespace string for the record.\n     */\n    function remove(string _namespace) onlyOwner public {\n        bytes32 h = keccak256(_namespace);\n\n        delete ptr[ registry[h].addr ];\n        delete registry[ h ];\n        \n        Remove(_namespace);\n    }\n\n    /**\n     * @dev Checks if the provided address is a contract.\n     * @param _addr - ethereum address\n     * @return bool true if provided address is a contract.\n     */\n    function isContract(address _addr) private view returns (bool) {\n        uint32 size;\n        assembly {\n            size := extcodesize(_addr)\n        }\n        return (size > 0);\n    }\n}\n\n",
  "sourcePath": "/Users/chentschel/Projects/decentraland/contracts-locator/contracts/ServiceLocator.sol",
  "compiler": {
    "name": "solc",
    "version": "0.4.18+commit.9cf6e910.Emscripten.clang"
  },
  "schemaVersion": "1.0.1",
  "updatedAt": "2018-03-12T14:36:02.849Z"
}